{
  "address": "0xe7f1725E7734CE288F8367e1Bb143E90bb3F0512",
  "abi": [
    {
      "inputs": [
        {
          "internalType": "address",
          "name": "priceFeedAddress",
          "type": "address"
        }
      ],
      "stateMutability": "nonpayable",
      "type": "constructor"
    },
    {
      "inputs": [],
      "name": "FundMe__NotOwner",
      "type": "error"
    },
    {
      "inputs": [
        {
          "internalType": "address",
          "name": "",
          "type": "address"
        }
      ],
      "name": "addressToAmtFunded",
      "outputs": [
        {
          "internalType": "uint256",
          "name": "",
          "type": "uint256"
        }
      ],
      "stateMutability": "view",
      "type": "function"
    },
    {
      "inputs": [],
      "name": "fund",
      "outputs": [],
      "stateMutability": "payable",
      "type": "function"
    },
    {
      "inputs": [
        {
          "internalType": "uint256",
          "name": "",
          "type": "uint256"
        }
      ],
      "name": "funders",
      "outputs": [
        {
          "internalType": "address",
          "name": "",
          "type": "address"
        }
      ],
      "stateMutability": "view",
      "type": "function"
    },
    {
      "inputs": [],
      "name": "owner",
      "outputs": [
        {
          "internalType": "address",
          "name": "",
          "type": "address"
        }
      ],
      "stateMutability": "view",
      "type": "function"
    },
    {
      "inputs": [],
      "name": "priceFeed",
      "outputs": [
        {
          "internalType": "contract AggregatorV3Interface",
          "name": "",
          "type": "address"
        }
      ],
      "stateMutability": "view",
      "type": "function"
    },
    {
      "inputs": [],
      "name": "withdraw",
      "outputs": [],
      "stateMutability": "nonpayable",
      "type": "function"
    }
  ],
  "transactionHash": "0xb22e0583210b610d146ddf5f31bbe8d12605d41e8ad6b7cbbfd7ae0eb4a08fb6",
  "args": [
    "0x5FbDB2315678afecb367f032d93F642f64180aa3"
  ],
  "numDeployments": 1,
  "solcInputHash": "9255c09c3178c504bb87d1159b14a716",
  "bytecode": "0x60a060405234801561001057600080fd5b50604051610f58380380610f58833981810160405281019061003291906100c4565b3373ffffffffffffffffffffffffffffffffffffffff1660808173ffffffffffffffffffffffffffffffffffffffff1660601b81525050806000806101000a81548173ffffffffffffffffffffffffffffffffffffffff021916908373ffffffffffffffffffffffffffffffffffffffff1602179055505061013f565b6000815190506100be81610128565b92915050565b6000602082840312156100da576100d9610123565b5b60006100e8848285016100af565b91505092915050565b60006100fc82610103565b9050919050565b600073ffffffffffffffffffffffffffffffffffffffff82169050919050565b600080fd5b610131816100f1565b811461013c57600080fd5b50565b60805160601c610df461016460003960008181610165015261042e0152610df46000f3fe6080604052600436106100555760003560e01c80632e7154291461005a5780633ccfd60b14610097578063741bef1a146100ae5780638da5cb5b146100d9578063b60d428814610104578063dc0d3dff1461010e575b600080fd5b34801561006657600080fd5b50610081600480360381019061007c91906107a2565b61014b565b60405161008e9190610998565b60405180910390f35b3480156100a357600080fd5b506100ac610163565b005b3480156100ba57600080fd5b506100c3610408565b6040516100d0919061093d565b60405180910390f35b3480156100e557600080fd5b506100ee61042c565b6040516100fb9190610922565b60405180910390f35b61010c610450565b005b34801561011a57600080fd5b50610135600480360381019061013091906107cf565b610577565b6040516101429190610922565b60405180910390f35b60026020528060005260406000206000915090505481565b7f000000000000000000000000000000000000000000000000000000000000000073ffffffffffffffffffffffffffffffffffffffff163373ffffffffffffffffffffffffffffffffffffffff16146101e8576040517f579610db00000000000000000000000000000000000000000000000000000000815260040160405180910390fd5b6000600180548060200260200160405190810160405280929190818152602001828054801561026c57602002820191906000526020600020905b8160009054906101000a900473ffffffffffffffffffffffffffffffffffffffff1673ffffffffffffffffffffffffffffffffffffffff1681526020019060010190808311610222575b5050505050905060005b81518110156102f757600082828151811061029457610293610caa565b5b602002602001015190506000600260008373ffffffffffffffffffffffffffffffffffffffff1673ffffffffffffffffffffffffffffffffffffffff168152602001908152602001600020819055505080806102ef90610c03565b915050610276565b50600067ffffffffffffffff81111561031357610312610cd9565b5b6040519080825280602002602001820160405280156103415781602001602082028036833780820191505090505b5060019080519060200190610357929190610692565b5060003373ffffffffffffffffffffffffffffffffffffffff164760405161037e9061090d565b60006040518083038185875af1925050503d80600081146103bb576040519150601f19603f3d011682016040523d82523d6000602084013e6103c0565b606091505b5050905080610404576040517f08c379a00000000000000000000000000000000000000000000000000000000081526004016103fb90610958565b60405180910390fd5b5050565b60008054906101000a900473ffffffffffffffffffffffffffffffffffffffff1681565b7f000000000000000000000000000000000000000000000000000000000000000081565b6802b5e3af16b188000061048d60008054906101000a900473ffffffffffffffffffffffffffffffffffffffff16346105b690919063ffffffff16565b10156104ce576040517f08c379a00000000000000000000000000000000000000000000000000000000081526004016104c590610978565b60405180910390fd5b6001339080600181540180825580915050600190039060005260206000200160009091909190916101000a81548173ffffffffffffffffffffffffffffffffffffffff021916908373ffffffffffffffffffffffffffffffffffffffff16021790555034600260003373ffffffffffffffffffffffffffffffffffffffff1673ffffffffffffffffffffffffffffffffffffffff16815260200190815260200160002081905550565b6001818154811061058757600080fd5b906000526020600020016000915054906101000a900473ffffffffffffffffffffffffffffffffffffffff1681565b6000806105c2836105f2565b90506000670de0b6b3a764000085836105db9190610b17565b6105e591906109cf565b9050809250505092915050565b6000808273ffffffffffffffffffffffffffffffffffffffff1663feaf968c6040518163ffffffff1660e01b815260040160a06040518083038186803b15801561063b57600080fd5b505afa15801561064f573d6000803e3d6000fd5b505050506040513d601f19601f8201168201806040525081019061067391906107fc565b5050509150506402540be4008161068a9190610a00565b915050919050565b82805482825590600052602060002090810192821561070b579160200282015b8281111561070a5782518260006101000a81548173ffffffffffffffffffffffffffffffffffffffff021916908373ffffffffffffffffffffffffffffffffffffffff160217905550916020019190600101906106b2565b5b509050610718919061071c565b5090565b5b8082111561073557600081600090555060010161071d565b5090565b60008135905061074881610d62565b92915050565b60008151905061075d81610d79565b92915050565b60008135905061077281610d90565b92915050565b60008151905061078781610d90565b92915050565b60008151905061079c81610da7565b92915050565b6000602082840312156107b8576107b7610d08565b5b60006107c684828501610739565b91505092915050565b6000602082840312156107e5576107e4610d08565b5b60006107f384828501610763565b91505092915050565b600080600080600060a0868803121561081857610817610d08565b5b60006108268882890161078d565b95505060206108378882890161074e565b945050604061084888828901610778565b935050606061085988828901610778565b925050608061086a8882890161078d565b9150509295509295909350565b61088081610b71565b82525050565b61088f81610bcd565b82525050565b60006108a2600b836109be565b91506108ad82610d0d565b602082019050919050565b60006108c56000836109b3565b91506108d082610d36565b600082019050919050565b60006108e86011836109be565b91506108f382610d39565b602082019050919050565b61090781610bad565b82525050565b6000610918826108b8565b9150819050919050565b60006020820190506109376000830184610877565b92915050565b60006020820190506109526000830184610886565b92915050565b6000602082019050818103600083015261097181610895565b9050919050565b60006020820190508181036000830152610991816108db565b9050919050565b60006020820190506109ad60008301846108fe565b92915050565b600081905092915050565b600082825260208201905092915050565b60006109da82610bad565b91506109e583610bad565b9250826109f5576109f4610c7b565b5b828204905092915050565b6000610a0b82610b83565b9150610a1683610b83565b9250827f7fffffffffffffffffffffffffffffffffffffffffffffffffffffffffffffff0482116000841360008413161615610a5557610a54610c4c565b5b817f80000000000000000000000000000000000000000000000000000000000000000583126000841260008413161615610a9257610a91610c4c565b5b827f80000000000000000000000000000000000000000000000000000000000000000582126000841360008412161615610acf57610ace610c4c565b5b827f7fffffffffffffffffffffffffffffffffffffffffffffffffffffffffffffff0582126000841260008412161615610b0c57610b0b610c4c565b5b828202905092915050565b6000610b2282610bad565b9150610b2d83610bad565b9250817fffffffffffffffffffffffffffffffffffffffffffffffffffffffffffffffff0483118215151615610b6657610b65610c4c565b5b828202905092915050565b6000610b7c82610b8d565b9050919050565b6000819050919050565b600073ffffffffffffffffffffffffffffffffffffffff82169050919050565b6000819050919050565b600069ffffffffffffffffffff82169050919050565b6000610bd882610bdf565b9050919050565b6000610bea82610bf1565b9050919050565b6000610bfc82610b8d565b9050919050565b6000610c0e82610bad565b91507fffffffffffffffffffffffffffffffffffffffffffffffffffffffffffffffff821415610c4157610c40610c4c565b5b600182019050919050565b7f4e487b7100000000000000000000000000000000000000000000000000000000600052601160045260246000fd5b7f4e487b7100000000000000000000000000000000000000000000000000000000600052601260045260246000fd5b7f4e487b7100000000000000000000000000000000000000000000000000000000600052603260045260246000fd5b7f4e487b7100000000000000000000000000000000000000000000000000000000600052604160045260246000fd5b600080fd5b7f43616c6c206661696c6564000000000000000000000000000000000000000000600082015250565b50565b7f4e6f7420656e6f75676820616d6f756e74000000000000000000000000000000600082015250565b610d6b81610b71565b8114610d7657600080fd5b50565b610d8281610b83565b8114610d8d57600080fd5b50565b610d9981610bad565b8114610da457600080fd5b50565b610db081610bb7565b8114610dbb57600080fd5b5056fea26469706673582212203894c9fd3e3fc6791c98db974a2b6ee558545f7c1658c14ef16cadaf9da4bc4564736f6c63430008070033",
  "devdoc": {
    "kind": "dev",
    "methods": {},
    "version": 1
  },
  "userdoc": {
    "kind": "user",
    "methods": {},
    "version": 1
  },
  "storageLayout": {
    "storage": [
      {
        "astId": 56,
        "contract": "contracts/FundMe.sol:FundMe",
        "label": "priceFeed",
        "offset": 0,
        "slot": "0",
        "type": "t_contract(AggregatorV3Interface)45"
      },
      {
        "astId": 67,
        "contract": "contracts/FundMe.sol:FundMe",
        "label": "funders",
        "offset": 0,
        "slot": "1",
        "type": "t_array(t_address)dyn_storage"
      },
      {
        "astId": 71,
        "contract": "contracts/FundMe.sol:FundMe",
        "label": "addressToAmtFunded",
        "offset": 0,
        "slot": "2",
        "type": "t_mapping(t_address,t_uint256)"
      }
    ],
    "types": {
      "t_address": {
        "encoding": "inplace",
        "label": "address",
        "numberOfBytes": "20"
      },
      "t_array(t_address)dyn_storage": {
        "base": "t_address",
        "encoding": "dynamic_array",
        "label": "address[]",
        "numberOfBytes": "32"
      },
      "t_contract(AggregatorV3Interface)45": {
        "encoding": "inplace",
        "label": "contract AggregatorV3Interface",
        "numberOfBytes": "20"
      },
      "t_mapping(t_address,t_uint256)": {
        "encoding": "mapping",
        "key": "t_address",
        "label": "mapping(address => uint256)",
        "numberOfBytes": "32",
        "value": "t_uint256"
      },
      "t_uint256": {
        "encoding": "inplace",
        "label": "uint256",
        "numberOfBytes": "32"
      }
    }
  }
}